{
  "_format": "hh-sol-artifact-1",
  "contractName": "MajorProject",
  "sourceName": "contracts/MajorProject.sol",
  "abi": [
    {
      "inputs": [],
      "stateMutability": "nonpayable",
      "type": "constructor"
    },
    {
      "anonymous": false,
      "inputs": [
        {
          "indexed": false,
          "internalType": "address",
          "name": "userAddress",
          "type": "address"
        },
        {
          "indexed": false,
          "internalType": "bool",
          "name": "status",
          "type": "bool"
        }
      ],
      "name": "UserStatus",
      "type": "event"
    },
    {
      "inputs": [
        {
          "internalType": "address",
          "name": "_walletAddress",
          "type": "address"
        }
      ],
      "name": "addActiveUser",
      "outputs": [],
      "stateMutability": "nonpayable",
      "type": "function"
    },
    {
      "inputs": [
        {
          "internalType": "string",
          "name": "documentHash",
          "type": "string"
        },
        {
          "internalType": "uint256",
          "name": "version",
          "type": "uint256"
        },
        {
          "internalType": "address",
          "name": "contractAddress",
          "type": "address"
        }
      ],
      "name": "addNewVersion",
      "outputs": [],
      "stateMutability": "nonpayable",
      "type": "function"
    },
    {
      "inputs": [],
      "name": "applyForApprover",
      "outputs": [],
      "stateMutability": "nonpayable",
      "type": "function"
    },
    {
      "inputs": [],
      "name": "approveNewApprover",
      "outputs": [],
      "stateMutability": "nonpayable",
      "type": "function"
    },
    {
      "inputs": [],
      "name": "approvePendingHash",
      "outputs": [],
      "stateMutability": "nonpayable",
      "type": "function"
    },
    {
      "inputs": [
        {
          "internalType": "uint256",
          "name": "",
          "type": "uint256"
        }
      ],
      "name": "approvers",
      "outputs": [
        {
          "internalType": "address",
          "name": "",
          "type": "address"
        }
      ],
      "stateMutability": "view",
      "type": "function"
    },
    {
      "inputs": [],
      "name": "checkAllApproversForApprover",
      "outputs": [],
      "stateMutability": "nonpayable",
      "type": "function"
    },
    {
      "inputs": [],
      "name": "checkForApprovals",
      "outputs": [
        {
          "internalType": "address",
          "name": "",
          "type": "address"
        }
      ],
      "stateMutability": "view",
      "type": "function"
    },
    {
      "inputs": [],
      "name": "checkForApproveNewVersion",
      "outputs": [
        {
          "components": [
            {
              "internalType": "string",
              "name": "documentName",
              "type": "string"
            },
            {
              "internalType": "address",
              "name": "documentAddress",
              "type": "address"
            },
            {
              "internalType": "string",
              "name": "pendingVersionHash",
              "type": "string"
            },
            {
              "internalType": "uint256",
              "name": "pendingVersionVersion",
              "type": "uint256"
            }
          ],
          "internalType": "struct MajorProject.PendingVersionDisplay",
          "name": "_pendingVersionDisplay",
          "type": "tuple"
        }
      ],
      "stateMutability": "view",
      "type": "function"
    },
    {
      "inputs": [],
      "name": "checkForApproverRequestStatus",
      "outputs": [
        {
          "internalType": "bool",
          "name": "_approverRequestStatus",
          "type": "bool"
        }
      ],
      "stateMutability": "view",
      "type": "function"
    },
    {
      "inputs": [
        {
          "internalType": "string",
          "name": "documentHash",
          "type": "string"
        },
        {
          "internalType": "string",
          "name": "documentName",
          "type": "string"
        }
      ],
      "name": "createNewContract",
      "outputs": [
        {
          "internalType": "address",
          "name": "",
          "type": "address"
        }
      ],
      "stateMutability": "nonpayable",
      "type": "function"
    },
    {
      "inputs": [
        {
          "internalType": "uint256",
          "name": "",
          "type": "uint256"
        }
      ],
      "name": "documentContracts",
      "outputs": [
        {
          "internalType": "contract DocumentContract",
          "name": "",
          "type": "address"
        }
      ],
      "stateMutability": "view",
      "type": "function"
    },
    {
      "inputs": [],
      "name": "getAllApprover",
      "outputs": [],
      "stateMutability": "nonpayable",
      "type": "function"
    },
    {
      "inputs": [
        {
          "internalType": "address",
          "name": "contractAddress",
          "type": "address"
        }
      ],
      "name": "getAvailableDocumentVersion",
      "outputs": [
        {
          "internalType": "uint256",
          "name": "availableDocumentVersion",
          "type": "uint256"
        }
      ],
      "stateMutability": "view",
      "type": "function"
    },
    {
      "inputs": [
        {
          "internalType": "address",
          "name": "contractAddress",
          "type": "address"
        }
      ],
      "name": "getDocumentContractName",
      "outputs": [
        {
          "internalType": "string",
          "name": "documentContractName",
          "type": "string"
        }
      ],
      "stateMutability": "view",
      "type": "function"
    },
    {
      "inputs": [],
      "name": "getDocumentContracts",
      "outputs": [
        {
          "internalType": "contract DocumentContract[]",
          "name": "",
          "type": "address[]"
        }
      ],
      "stateMutability": "view",
      "type": "function"
    },
    {
      "inputs": [
        {
          "internalType": "address",
          "name": "contractAddress",
          "type": "address"
        }
      ],
      "name": "getDocumentHashes",
      "outputs": [
        {
          "internalType": "string[]",
          "name": "",
          "type": "string[]"
        }
      ],
      "stateMutability": "view",
      "type": "function"
    },
    {
      "inputs": [],
      "name": "getUserStatus",
      "outputs": [
        {
          "internalType": "bool",
          "name": "",
          "type": "bool"
        }
      ],
      "stateMutability": "view",
      "type": "function"
    },
    {
      "inputs": [
        {
          "internalType": "uint256",
          "name": "",
          "type": "uint256"
        }
      ],
      "name": "users",
      "outputs": [
        {
          "internalType": "address",
          "name": "walletAddress",
          "type": "address"
        },
        {
          "internalType": "bool",
          "name": "status",
          "type": "bool"
        },
        {
          "internalType": "bool",
          "name": "approverRequestStatus",
          "type": "bool"
        }
      ],
      "stateMutability": "view",
      "type": "function"
    }
  ],
  "bytecode": "0x608060405234801561001057600080fd5b506000604051806060016040528073a87881a951ff0b2647e6fcc3064ea96b858b50cd73ffffffffffffffffffffffffffffffffffffffff168152602001600115158152602001600015158152509080600181540180825580915050600190039060005260206000200160009091909190915060008201518160000160006101000a81548173ffffffffffffffffffffffffffffffffffffffff021916908373ffffffffffffffffffffffffffffffffffffffff16021790555060208201518160000160146101000a81548160ff02191690831515021790555060408201518160000160156101000a81548160ff0219169083151502179055505050614be18061011b6000396000f3fe60806040523480156200001157600080fd5b50600436106200013c5760003560e01c8063babe4af311620000bd578063eabdc487116200007b578063eabdc4871462000351578063eb1fe5981462000373578063ec1ba6dc146200037f578063f9e693cb146200038b578063ff4ec39214620003ad576200013c565b8063babe4af3146200026b578063c4a5350d146200028d578063d3650fb814620002c3578063e650f53614620002f9578063e93c4a30146200031b576200013c565b80637e3462b2116200010b5780637e3462b214620001c7578063844dfec614620001fd578063905d5e25146200023357806397d2536f146200023f578063a12c64c4146200025f576200013c565b80630dcdd68e1462000141578063365b98b2146200014d578063417ffba114620001855780634f80791a14620001a5575b600080fd5b6200014b620003e3565b005b6200016b6004803603810190620001659190620031a8565b62000a6b565b6040516200017c9392919062003569565b60405180910390f35b620001a360048036038101906200019d9190620030f4565b62000adc565b005b620001af62001023565b604051620001be9190620035ee565b60405180910390f35b620001e56004803603810190620001df9190620031a8565b6200103d565b604051620001f491906200360b565b60405180910390f35b6200021b600480360381019062000215919062002f9f565b6200107d565b6040516200022a919062003628565b60405180910390f35b6200023d620012bd565b005b6200025d600480360381019062000257919062002f9f565b62001582565b005b6200026962001965565b005b6200027562001b63565b604051620002849190620036fd565b60405180910390f35b620002ab6004803603810190620002a5919062003081565b62001f64565b604051620002ba91906200354c565b60405180910390f35b620002e16004803603810190620002db9190620031a8565b6200222a565b604051620002f091906200354c565b60405180910390f35b620003036200226a565b604051620003129190620035ee565b60405180910390f35b62000339600480360381019062000333919062002f9f565b62002284565b604051620003489190620035ca565b60405180910390f35b6200035b620024db565b6040516200036a9190620035a6565b60405180910390f35b6200037d6200256b565b005b62000389620025ea565b005b62000395620029ff565b604051620003a491906200354c565b60405180910390f35b620003cb6004803603810190620003c5919062002f9f565b62002a29565b604051620003da919062003721565b60405180910390f35b60005b6001805490508110156200069d57600660000160009054906101000a900473ffffffffffffffffffffffffffffffffffffffff1673ffffffffffffffffffffffffffffffffffffffff16600182815481106200046b577f4e487b7100000000000000000000000000000000000000000000000000000000600052603260045260246000fd5b9060005260206000200160009054906101000a900473ffffffffffffffffffffffffffffffffffffffff1673ffffffffffffffffffffffffffffffffffffffff166394d2d7a76040518163ffffffff1660e01b815260040160206040518083038186803b158015620004dc57600080fd5b505afa158015620004f1573d6000803e3d6000fd5b505050506040513d601f19601f8201168201806040525081019062000517919062002fcb565b73ffffffffffffffffffffffffffffffffffffffff1614156200068657604051602001620005459062003535565b604051602081830303815290604052805190602001206001828154811062000596577f4e487b7100000000000000000000000000000000000000000000000000000000600052603260045260246000fd5b9060005260206000200160009054906101000a900473ffffffffffffffffffffffffffffffffffffffff1673ffffffffffffffffffffffffffffffffffffffff1663a883fb906040518163ffffffff1660e01b815260040160006040518083038186803b1580156200060757600080fd5b505afa1580156200061c573d6000803e3d6000fd5b505050506040513d6000823e3d601f19601f8201168201806040525081019062000647919062003163565b600001516040516020016200065d91906200351c565b604051602081830303815290604052805190602001201415620006805762000687565b6200069d565b5b8080620006949062003977565b915050620003e6565b6001805490508110620006b1575062000a69565b60018181548110620006ec577f4e487b7100000000000000000000000000000000000000000000000000000000600052603260045260246000fd5b9060005260206000200160009054906101000a900473ffffffffffffffffffffffffffffffffffffffff1673ffffffffffffffffffffffffffffffffffffffff1663a883fb906040518163ffffffff1660e01b815260040160006040518083038186803b1580156200075d57600080fd5b505afa15801562000772573d6000803e3d6000fd5b505050506040513d6000823e3d601f19601f820116820180604052508101906200079d919062003163565b6020015160018281548110620007dc577f4e487b7100000000000000000000000000000000000000000000000000000000600052603260045260246000fd5b9060005260206000200160009054906101000a900473ffffffffffffffffffffffffffffffffffffffff1673ffffffffffffffffffffffffffffffffffffffff166360a52ae36040518163ffffffff1660e01b815260040160206040518083038186803b1580156200084d57600080fd5b505afa15801562000862573d6000803e3d6000fd5b505050506040513d601f19601f82011682018060405250810190620008889190620031d4565b146200089357600080fd5b600060018281548110620008d0577f4e487b7100000000000000000000000000000000000000000000000000000000600052603260045260246000fd5b9060005260206000200160009054906101000a900473ffffffffffffffffffffffffffffffffffffffff1690508073ffffffffffffffffffffffffffffffffffffffff16636fedeca18273ffffffffffffffffffffffffffffffffffffffff1663a883fb906040518163ffffffff1660e01b815260040160006040518083038186803b1580156200096057600080fd5b505afa15801562000975573d6000803e3d6000fd5b505050506040513d6000823e3d601f19601f82011682018060405250810190620009a0919062003163565b600001516040518263ffffffff1660e01b8152600401620009c2919062003628565b600060405180830381600087803b158015620009dd57600080fd5b505af1158015620009f2573d6000803e3d6000fd5b505050508073ffffffffffffffffffffffffffffffffffffffff16634dd57a1d60006040518263ffffffff1660e01b815260040162000a329190620036cb565b600060405180830381600087803b15801562000a4d57600080fd5b505af115801562000a62573d6000803e3d6000fd5b5050505050505b565b6000818154811062000a7c57600080fd5b906000526020600020016000915090508060000160009054906101000a900473ffffffffffffffffffffffffffffffffffffffff16908060000160149054906101000a900460ff16908060000160159054906101000a900460ff16905083565b60005b60018054905081101562000c24578173ffffffffffffffffffffffffffffffffffffffff166001828154811062000b3f577f4e487b7100000000000000000000000000000000000000000000000000000000600052603260045260246000fd5b9060005260206000200160009054906101000a900473ffffffffffffffffffffffffffffffffffffffff1673ffffffffffffffffffffffffffffffffffffffff166342cbb15c6040518163ffffffff1660e01b815260040160206040518083038186803b15801562000bb057600080fd5b505afa15801562000bc5573d6000803e3d6000fd5b505050506040513d601f19601f8201168201806040525081019062000beb919062002fcb565b73ffffffffffffffffffffffffffffffffffffffff16141562000c0e5762000c24565b808062000c1b9062003977565b91505062000adf565b600180549050811062000c3857506200101e565b60006001828154811062000c75577f4e487b7100000000000000000000000000000000000000000000000000000000600052603260045260246000fd5b9060005260206000200160009054906101000a900473ffffffffffffffffffffffffffffffffffffffff169050600660000160009054906101000a900473ffffffffffffffffffffffffffffffffffffffff1673ffffffffffffffffffffffffffffffffffffffff168173ffffffffffffffffffffffffffffffffffffffff166394d2d7a76040518163ffffffff1660e01b815260040160206040518083038186803b15801562000d2557600080fd5b505afa15801562000d3a573d6000803e3d6000fd5b505050506040513d601f19601f8201168201806040525081019062000d60919062002fcb565b73ffffffffffffffffffffffffffffffffffffffff16141562000e62578073ffffffffffffffffffffffffffffffffffffffff16636fedeca1866040518263ffffffff1660e01b815260040162000db8919062003628565b600060405180830381600087803b15801562000dd357600080fd5b505af115801562000de8573d6000803e3d6000fd5b505050508073ffffffffffffffffffffffffffffffffffffffff16634dd57a1d60006040518263ffffffff1660e01b815260040162000e289190620036cb565b600060405180830381600087803b15801562000e4357600080fd5b505af115801562000e58573d6000803e3d6000fd5b505050506200101b565b60405160200162000e739062003535565b604051602081830303815290604052805190602001206001838154811062000ec4577f4e487b7100000000000000000000000000000000000000000000000000000000600052603260045260246000fd5b9060005260206000200160009054906101000a900473ffffffffffffffffffffffffffffffffffffffff1673ffffffffffffffffffffffffffffffffffffffff1663a883fb906040518163ffffffff1660e01b815260040160006040518083038186803b15801562000f3557600080fd5b505afa15801562000f4a573d6000803e3d6000fd5b505050506040513d6000823e3d601f19601f8201168201806040525081019062000f75919062003163565b6000015160405160200162000f8b91906200351c565b6040516020818303038152906040528051906020012014156200101a578073ffffffffffffffffffffffffffffffffffffffff16634dd57a1d86866040518363ffffffff1660e01b815260040162000fe592919062003697565b600060405180830381600087803b1580156200100057600080fd5b505af115801562001015573d6000803e3d6000fd5b505050505b5b50505b505050565b6000600660000160159054906101000a900460ff16905090565b600181815481106200104e57600080fd5b906000526020600020016000915054906101000a900473ffffffffffffffffffffffffffffffffffffffff1681565b606060005b600180549050811015620012b6578273ffffffffffffffffffffffffffffffffffffffff1660018281548110620010e2577f4e487b7100000000000000000000000000000000000000000000000000000000600052603260045260246000fd5b9060005260206000200160009054906101000a900473ffffffffffffffffffffffffffffffffffffffff1673ffffffffffffffffffffffffffffffffffffffff166342cbb15c6040518163ffffffff1660e01b815260040160206040518083038186803b1580156200115357600080fd5b505afa15801562001168573d6000803e3d6000fd5b505050506040513d601f19601f820116820180604052508101906200118e919062002fcb565b73ffffffffffffffffffffffffffffffffffffffff161415620012a05760018181548110620011e6577f4e487b7100000000000000000000000000000000000000000000000000000000600052603260045260246000fd5b9060005260206000200160009054906101000a900473ffffffffffffffffffffffffffffffffffffffff1673ffffffffffffffffffffffffffffffffffffffff1663223f84ef6040518163ffffffff1660e01b815260040160006040518083038186803b1580156200125757600080fd5b505afa1580156200126c573d6000803e3d6000fd5b505050506040513d6000823e3d601f19601f820116820180604052508101906200129791906200303c565b915050620012b8565b8080620012ad9062003977565b91505062001082565b505b919050565b600660000160009054906101000a900473ffffffffffffffffffffffffffffffffffffffff16600560006101000a81548173ffffffffffffffffffffffffffffffffffffffff021916908373ffffffffffffffffffffffffffffffffffffffff16021790555060005b60008054905081116200157e57600660000160009054906101000a900473ffffffffffffffffffffffffffffffffffffffff1673ffffffffffffffffffffffffffffffffffffffff1660008281548110620013aa577f4e487b7100000000000000000000000000000000000000000000000000000000600052603260045260246000fd5b9060005260206000200160000160009054906101000a900473ffffffffffffffffffffffffffffffffffffffff1673ffffffffffffffffffffffffffffffffffffffff161415620015685760016000828154811062001432577f4e487b7100000000000000000000000000000000000000000000000000000000600052603260045260246000fd5b9060005260206000200160000160156101000a81548160ff0219169083151502179055506000818154811062001491577f4e487b7100000000000000000000000000000000000000000000000000000000600052603260045260246000fd5b9060005260206000200160066000820160009054906101000a900473ffffffffffffffffffffffffffffffffffffffff168160000160006101000a81548173ffffffffffffffffffffffffffffffffffffffff021916908373ffffffffffffffffffffffffffffffffffffffff1602179055506000820160149054906101000a900460ff168160000160146101000a81548160ff0219169083151502179055506000820160159054906101000a900460ff168160000160156101000a81548160ff0219169083151502179055509050505062001580565b8080620015759062003977565b91505062001326565b505b565b60005b60008054905081101562001757576000808281548110620015cf577f4e487b7100000000000000000000000000000000000000000000000000000000600052603260045260246000fd5b906000526020600020016040518060600160405290816000820160009054906101000a900473ffffffffffffffffffffffffffffffffffffffff1673ffffffffffffffffffffffffffffffffffffffff1673ffffffffffffffffffffffffffffffffffffffff1681526020016000820160149054906101000a900460ff161515151581526020016000820160159054906101000a900460ff16151515158152505090508273ffffffffffffffffffffffffffffffffffffffff16816000015173ffffffffffffffffffffffffffffffffffffffff161415620017405780600660008201518160000160006101000a81548173ffffffffffffffffffffffffffffffffffffffff021916908373ffffffffffffffffffffffffffffffffffffffff16021790555060208201518160000160146101000a81548160ff02191690831515021790555060408201518160000160156101000a81548160ff021916908315150217905550905050505062001962565b5080806200174e9062003977565b91505062001585565b60008054905081106200195d57600060405180606001604052808473ffffffffffffffffffffffffffffffffffffffff168152602001600015158152602001600015158152509080600181540180825580915050600190039060005260206000200160009091909190915060008201518160000160006101000a81548173ffffffffffffffffffffffffffffffffffffffff021916908373ffffffffffffffffffffffffffffffffffffffff16021790555060208201518160000160146101000a81548160ff02191690831515021790555060408201518160000160156101000a81548160ff02191690831515021790555050506000818154811062001886577f4e487b7100000000000000000000000000000000000000000000000000000000600052603260045260246000fd5b9060005260206000200160066000820160009054906101000a900473ffffffffffffffffffffffffffffffffffffffff168160000160006101000a81548173ffffffffffffffffffffffffffffffffffffffff021916908373ffffffffffffffffffffffffffffffffffffffff1602179055506000820160149054906101000a900460ff168160000160146101000a81548160ff0219169083151502179055506000820160159054906101000a900460ff168160000160156101000a81548160ff0219169083151502179055509050505062001962565b600080fd5b50565b6000808054905067ffffffffffffffff811115620019ac577f4e487b7100000000000000000000000000000000000000000000000000000000600052604160045260246000fd5b604051908082528060200260200182016040528015620019db5781602001602082028036833780820191505090505b50905060005b60008054905081101562001b4657600115156000828154811062001a2e577f4e487b7100000000000000000000000000000000000000000000000000000000600052603260045260246000fd5b9060005260206000200160000160149054906101000a900460ff161515141562001b30576000818154811062001a8d577f4e487b7100000000000000000000000000000000000000000000000000000000600052603260045260246000fd5b9060005260206000200160000160009054906101000a900473ffffffffffffffffffffffffffffffffffffffff1682828151811062001af5577f4e487b7100000000000000000000000000000000000000000000000000000000600052603260045260246000fd5b602002602001019073ffffffffffffffffffffffffffffffffffffffff16908173ffffffffffffffffffffffffffffffffffffffff16815250505b808062001b3d9062003977565b915050620019e1565b816002908051906020019062001b5e92919062002c67565b505050565b62001b6d62002cf6565b60005b60018054905081101562001f5f5760006001828154811062001bbb577f4e487b7100000000000000000000000000000000000000000000000000000000600052603260045260246000fd5b9060005260206000200160009054906101000a900473ffffffffffffffffffffffffffffffffffffffff169050600660000160009054906101000a900473ffffffffffffffffffffffffffffffffffffffff1673ffffffffffffffffffffffffffffffffffffffff168173ffffffffffffffffffffffffffffffffffffffff166394d2d7a76040518163ffffffff1660e01b815260040160206040518083038186803b15801562001c6b57600080fd5b505afa15801562001c80573d6000803e3d6000fd5b505050506040513d601f19601f8201168201806040525081019062001ca6919062002fcb565b73ffffffffffffffffffffffffffffffffffffffff16141562001f485762001ccd62002cf6565b8173ffffffffffffffffffffffffffffffffffffffff1663223f84ef6040518163ffffffff1660e01b815260040160006040518083038186803b15801562001d1457600080fd5b505afa15801562001d29573d6000803e3d6000fd5b505050506040513d6000823e3d601f19601f8201168201806040525081019062001d5491906200303c565b81600001819052508173ffffffffffffffffffffffffffffffffffffffff166342cbb15c6040518163ffffffff1660e01b815260040160206040518083038186803b15801562001da357600080fd5b505afa15801562001db8573d6000803e3d6000fd5b505050506040513d601f19601f8201168201806040525081019062001dde919062002fcb565b816020019073ffffffffffffffffffffffffffffffffffffffff16908173ffffffffffffffffffffffffffffffffffffffff16815250508173ffffffffffffffffffffffffffffffffffffffff1663a883fb906040518163ffffffff1660e01b815260040160006040518083038186803b15801562001e5c57600080fd5b505afa15801562001e71573d6000803e3d6000fd5b505050506040513d6000823e3d601f19601f8201168201806040525081019062001e9c919062003163565b6000015181604001819052508173ffffffffffffffffffffffffffffffffffffffff1663a883fb906040518163ffffffff1660e01b815260040160006040518083038186803b15801562001eef57600080fd5b505afa15801562001f04573d6000803e3d6000fd5b505050506040513d6000823e3d601f19601f8201168201806040525081019062001f2f919062003163565b6020015181606001818152505080935050505062001f61565b50808062001f569062003977565b91505062001b70565b505b90565b60008060009050600090505b6000805490508110156200205c57600660000160009054906101000a900473ffffffffffffffffffffffffffffffffffffffff1673ffffffffffffffffffffffffffffffffffffffff166000828154811062001ff5577f4e487b7100000000000000000000000000000000000000000000000000000000600052603260045260246000fd5b9060005260206000200160000160009054906101000a900473ffffffffffffffffffffffffffffffffffffffff1673ffffffffffffffffffffffffffffffffffffffff16141562002046576200205c565b8080620020539062003977565b91505062001f70565b60008054905081106200206e57600080fd5b6001151560008281548110620020ad577f4e487b7100000000000000000000000000000000000000000000000000000000600052603260045260246000fd5b9060005260206000200160000160149054906101000a900460ff16151514620020d557600080fd5b60008484600660000160009054906101000a900473ffffffffffffffffffffffffffffffffffffffff166040516200210d9062002d34565b6200211b939291906200364c565b604051809103906000f08015801562002138573d6000803e3d6000fd5b5090506001819080600181540180825580915050600190039060005260206000200160009091909190916101000a81548173ffffffffffffffffffffffffffffffffffffffff021916908373ffffffffffffffffffffffffffffffffffffffff1602179055508073ffffffffffffffffffffffffffffffffffffffff166342cbb15c6040518163ffffffff1660e01b815260040160206040518083038186803b158015620021e557600080fd5b505afa158015620021fa573d6000803e3d6000fd5b505050506040513d601f19601f8201168201806040525081019062002220919062002fcb565b9250505092915050565b600281815481106200223b57600080fd5b906000526020600020016000915054906101000a900473ffffffffffffffffffffffffffffffffffffffff1681565b6000600660000160149054906101000a900460ff16905090565b606060005b600180549050811015620023ce578273ffffffffffffffffffffffffffffffffffffffff1660018281548110620022e9577f4e487b7100000000000000000000000000000000000000000000000000000000600052603260045260246000fd5b9060005260206000200160009054906101000a900473ffffffffffffffffffffffffffffffffffffffff1673ffffffffffffffffffffffffffffffffffffffff166342cbb15c6040518163ffffffff1660e01b815260040160206040518083038186803b1580156200235a57600080fd5b505afa1580156200236f573d6000803e3d6000fd5b505050506040513d601f19601f8201168201806040525081019062002395919062002fcb565b73ffffffffffffffffffffffffffffffffffffffff161415620023b857620023ce565b8080620023c59062003977565b91505062002289565b600180549050811115620023e157600080fd5b6000600182815481106200241e577f4e487b7100000000000000000000000000000000000000000000000000000000600052603260045260246000fd5b9060005260206000200160009054906101000a900473ffffffffffffffffffffffffffffffffffffffff1690508073ffffffffffffffffffffffffffffffffffffffff1663bc52980e6040518163ffffffff1660e01b815260040160006040518083038186803b1580156200249257600080fd5b505afa158015620024a7573d6000803e3d6000fd5b505050506040513d6000823e3d601f19601f82011682018060405250810190620024d2919062002ff7565b92505050919050565b606060018054806020026020016040519081016040528092919081815260200182805480156200256157602002820191906000526020600020905b8160009054906101000a900473ffffffffffffffffffffffffffffffffffffffff1673ffffffffffffffffffffffffffffffffffffffff168152602001906001019080831162002516575b5050505050905090565b600160036000600660000160009054906101000a900473ffffffffffffffffffffffffffffffffffffffff1673ffffffffffffffffffffffffffffffffffffffff1673ffffffffffffffffffffffffffffffffffffffff16815260200190815260200160002060006101000a81548160ff021916908315150217905550565b60005b600280549050811015620026d6576000151560036000600284815481106200263e577f4e487b7100000000000000000000000000000000000000000000000000000000600052603260045260246000fd5b9060005260206000200160009054906101000a900473ffffffffffffffffffffffffffffffffffffffff1673ffffffffffffffffffffffffffffffffffffffff1673ffffffffffffffffffffffffffffffffffffffff16815260200190815260200160002060009054906101000a900460ff1615151415620026c057620026d6565b8080620026cd9062003977565b915050620025ed565b600280549050811415620029fc57600090505b600080549050811015620029fb57600660000160009054906101000a900473ffffffffffffffffffffffffffffffffffffffff1673ffffffffffffffffffffffffffffffffffffffff16600082815481106200276e577f4e487b7100000000000000000000000000000000000000000000000000000000600052603260045260246000fd5b9060005260206000200160000160009054906101000a900473ffffffffffffffffffffffffffffffffffffffff1673ffffffffffffffffffffffffffffffffffffffff1614156200292657600160008281548110620027f6577f4e487b7100000000000000000000000000000000000000000000000000000000600052603260045260246000fd5b9060005260206000200160000160146101000a81548160ff0219169083151502179055506000818154811062002855577f4e487b7100000000000000000000000000000000000000000000000000000000600052603260045260246000fd5b9060005260206000200160066000820160009054906101000a900473ffffffffffffffffffffffffffffffffffffffff168160000160006101000a81548173ffffffffffffffffffffffffffffffffffffffff021916908373ffffffffffffffffffffffffffffffffffffffff1602179055506000820160149054906101000a900460ff168160000160146101000a81548160ff0219169083151502179055506000820160159054906101000a900460ff168160000160156101000a81548160ff0219169083151502179055509050505b60006003600080848154811062002966577f4e487b7100000000000000000000000000000000000000000000000000000000600052603260045260246000fd5b9060005260206000200160000160009054906101000a900473ffffffffffffffffffffffffffffffffffffffff1673ffffffffffffffffffffffffffffffffffffffff1673ffffffffffffffffffffffffffffffffffffffff16815260200190815260200160002060006101000a81548160ff0219169083151502179055508080620029f29062003977565b915050620026e9565b5b50565b6000600560009054906101000a900473ffffffffffffffffffffffffffffffffffffffff16905090565b600080600090505b60018054905081101562002c60578273ffffffffffffffffffffffffffffffffffffffff166001828154811062002a91577f4e487b7100000000000000000000000000000000000000000000000000000000600052603260045260246000fd5b9060005260206000200160009054906101000a900473ffffffffffffffffffffffffffffffffffffffff1673ffffffffffffffffffffffffffffffffffffffff166342cbb15c6040518163ffffffff1660e01b815260040160206040518083038186803b15801562002b0257600080fd5b505afa15801562002b17573d6000803e3d6000fd5b505050506040513d601f19601f8201168201806040525081019062002b3d919062002fcb565b73ffffffffffffffffffffffffffffffffffffffff16141562002c4a576001818154811062002b95577f4e487b7100000000000000000000000000000000000000000000000000000000600052603260045260246000fd5b9060005260206000200160009054906101000a900473ffffffffffffffffffffffffffffffffffffffff1673ffffffffffffffffffffffffffffffffffffffff166360a52ae36040518163ffffffff1660e01b815260040160206040518083038186803b15801562002c0657600080fd5b505afa15801562002c1b573d6000803e3d6000fd5b505050506040513d601f19601f8201168201806040525081019062002c419190620031d4565b91505062002c62565b808062002c579062003977565b91505062002a31565b505b919050565b82805482825590600052602060002090810192821562002ce3579160200282015b8281111562002ce25782518260006101000a81548173ffffffffffffffffffffffffffffffffffffffff021916908373ffffffffffffffffffffffffffffffffffffffff1602179055509160200191906001019062002c88565b5b50905062002cf2919062002d42565b5090565b604051806080016040528060608152602001600073ffffffffffffffffffffffffffffffffffffffff16815260200160608152602001600081525090565b6111408062003a6c83390190565b5b8082111562002d5d57600081600090555060010162002d43565b5090565b600062002d7862002d728462003767565b6200373e565b9050808382526020820190508260005b8581101562002dbc578151850162002da1888262002ed8565b84526020840193506020830192505060018101905062002d88565b5050509392505050565b600062002ddd62002dd78462003796565b6200373e565b90508281526020810184848401111562002df657600080fd5b62002e03848285620038fc565b509392505050565b600062002e2262002e1c8462003796565b6200373e565b90508281526020810184848401111562002e3b57600080fd5b62002e488482856200390b565b509392505050565b60008135905062002e618162003a37565b92915050565b60008151905062002e788162003a37565b92915050565b600082601f83011262002e9057600080fd5b815162002ea284826020860162002d61565b91505092915050565b600082601f83011262002ebd57600080fd5b813562002ecf84826020860162002dc6565b91505092915050565b600082601f83011262002eea57600080fd5b815162002efc84826020860162002e0b565b91505092915050565b60006040828403121562002f1857600080fd5b62002f2460406200373e565b9050600082015167ffffffffffffffff81111562002f4157600080fd5b62002f4f8482850162002ed8565b600083015250602062002f658482850162002f88565b60208301525092915050565b60008135905062002f828162003a51565b92915050565b60008151905062002f998162003a51565b92915050565b60006020828403121562002fb257600080fd5b600062002fc28482850162002e50565b91505092915050565b60006020828403121562002fde57600080fd5b600062002fee8482850162002e67565b91505092915050565b6000602082840312156200300a57600080fd5b600082015167ffffffffffffffff8111156200302557600080fd5b620030338482850162002e7e565b91505092915050565b6000602082840312156200304f57600080fd5b600082015167ffffffffffffffff8111156200306a57600080fd5b620030788482850162002ed8565b91505092915050565b600080604083850312156200309557600080fd5b600083013567ffffffffffffffff811115620030b057600080fd5b620030be8582860162002eab565b925050602083013567ffffffffffffffff811115620030dc57600080fd5b620030ea8582860162002eab565b9150509250929050565b6000806000606084860312156200310a57600080fd5b600084013567ffffffffffffffff8111156200312557600080fd5b620031338682870162002eab565b9350506020620031468682870162002f71565b9250506040620031598682870162002e50565b9150509250925092565b6000602082840312156200317657600080fd5b600082015167ffffffffffffffff8111156200319157600080fd5b6200319f8482850162002f05565b91505092915050565b600060208284031215620031bb57600080fd5b6000620031cb8482850162002f71565b91505092915050565b600060208284031215620031e757600080fd5b6000620031f78482850162002f88565b91505092915050565b60006200320e83836200334e565b60208301905092915050565b600062003228838362003381565b905092915050565b6200323b8162003876565b82525050565b6200324c8162003876565b82525050565b60006200325f82620037ec565b6200326b818562003827565b93506200327883620037cc565b8060005b83811015620032af57815162003293888262003200565b9750620032a0836200380d565b9250506001810190506200327c565b5085935050505092915050565b6000620032c982620037f7565b620032d5818562003838565b935083602082028501620032e985620037dc565b8060005b858110156200332b57848403895281516200330985826200321a565b945062003316836200381a565b925060208a01995050600181019050620032ed565b50829750879550505050505092915050565b62003348816200388a565b82525050565b6200335981620038c0565b82525050565b6200336a81620038c0565b82525050565b6200337b81620038e8565b82525050565b60006200338e8262003802565b6200339a818562003849565b9350620033ac8185602086016200390b565b620033b78162003a23565b840191505092915050565b6000620033cf8262003802565b620033db81856200385a565b9350620033ed8185602086016200390b565b620033f88162003a23565b840191505092915050565b6000620034108262003802565b6200341c81856200386b565b93506200342e8185602086016200390b565b80840191505092915050565b6000620034496000836200385a565b9150620034568262003a34565b600082019050919050565b6000620034706000836200386b565b91506200347d8262003a34565b600082019050919050565b60006080830160008301518482036000860152620034a7828262003381565b9150506020830151620034be602086018262003230565b5060408301518482036040860152620034d8828262003381565b9150506060830151620034ef6060860182620034fa565b508091505092915050565b6200350581620038b6565b82525050565b6200351681620038b6565b82525050565b60006200352a828462003403565b915081905092915050565b6000620035428262003461565b9150819050919050565b600060208201905062003563600083018462003241565b92915050565b600060608201905062003580600083018662003241565b6200358f60208301856200333d565b6200359e60408301846200333d565b949350505050565b60006020820190508181036000830152620035c2818462003252565b905092915050565b60006020820190508181036000830152620035e68184620032bc565b905092915050565b60006020820190506200360560008301846200333d565b92915050565b60006020820190506200362260008301846200335f565b92915050565b60006020820190508181036000830152620036448184620033c2565b905092915050565b60006060820190508181036000830152620036688186620033c2565b905081810360208301526200367e8185620033c2565b90506200368f604083018462003241565b949350505050565b60006040820190508181036000830152620036b38185620033c2565b9050620036c460208301846200350b565b9392505050565b60006040820190508181036000830152620036e6816200343a565b9050620036f7602083018462003370565b92915050565b6000602082019050818103600083015262003719818462003488565b905092915050565b60006020820190506200373860008301846200350b565b92915050565b60006200374a6200375d565b905062003758828262003941565b919050565b6000604051905090565b600067ffffffffffffffff821115620037855762003784620039f4565b5b602082029050602081019050919050565b600067ffffffffffffffff821115620037b457620037b3620039f4565b5b620037bf8262003a23565b9050602081019050919050565b6000819050602082019050919050565b6000819050602082019050919050565b600081519050919050565b600081519050919050565b600081519050919050565b6000602082019050919050565b6000602082019050919050565b600082825260208201905092915050565b600082825260208201905092915050565b600082825260208201905092915050565b600082825260208201905092915050565b600081905092915050565b6000620038838262003896565b9050919050565b60008115159050919050565b600073ffffffffffffffffffffffffffffffffffffffff82169050919050565b6000819050919050565b6000620038cd82620038d4565b9050919050565b6000620038e18262003896565b9050919050565b6000620038f582620038b6565b9050919050565b82818337600083830152505050565b60005b838110156200392b5780820151818401526020810190506200390e565b838111156200393b576000848401525b50505050565b6200394c8262003a23565b810181811067ffffffffffffffff821117156200396e576200396d620039f4565b5b80604052505050565b60006200398482620038b6565b91507fffffffffffffffffffffffffffffffffffffffffffffffffffffffffffffffff821415620039ba57620039b9620039c5565b5b600182019050919050565b7f4e487b7100000000000000000000000000000000000000000000000000000000600052601160045260246000fd5b7f4e487b7100000000000000000000000000000000000000000000000000000000600052604160045260246000fd5b6000601f19601f8301169050919050565b50565b62003a428162003876565b811462003a4e57600080fd5b50565b62003a5c81620038b6565b811462003a6857600080fd5b5056fe60806040523480156200001157600080fd5b506040516200114038038062001140833981810160405281019062000037919062000211565b60008390806001815401808255809150506001900390600052602060002001600090919091909150908051906020019062000074929190620000d8565b5081600190805190602001906200008d929190620000d8565b5080600260006101000a81548173ffffffffffffffffffffffffffffffffffffffff021916908373ffffffffffffffffffffffffffffffffffffffff16021790555050505062000457565b828054620000e69062000362565b90600052602060002090601f0160209004810192826200010a576000855562000156565b82601f106200012557805160ff191683800117855562000156565b8280016001018555821562000156579182015b828111156200015557825182559160200191906001019062000138565b5b50905062000165919062000169565b5090565b5b80821115620001845760008160009055506001016200016a565b5090565b60006200019f6200019984620002c2565b62000299565b905082815260208101848484011115620001b857600080fd5b620001c58482856200032c565b509392505050565b600081519050620001de816200043d565b92915050565b600082601f830112620001f657600080fd5b81516200020884826020860162000188565b91505092915050565b6000806000606084860312156200022757600080fd5b600084015167ffffffffffffffff8111156200024257600080fd5b6200025086828701620001e4565b935050602084015167ffffffffffffffff8111156200026e57600080fd5b6200027c86828701620001e4565b92505060406200028f86828701620001cd565b9150509250925092565b6000620002a5620002b8565b9050620002b3828262000398565b919050565b6000604051905090565b600067ffffffffffffffff821115620002e057620002df620003fd565b5b620002eb826200042c565b9050602081019050919050565b600062000305826200030c565b9050919050565b600073ffffffffffffffffffffffffffffffffffffffff82169050919050565b60005b838110156200034c5780820151818401526020810190506200032f565b838111156200035c576000848401525b50505050565b600060028204905060018216806200037b57607f821691505b60208210811415620003925762000391620003ce565b5b50919050565b620003a3826200042c565b810181811067ffffffffffffffff82111715620003c557620003c4620003fd565b5b80604052505050565b7f4e487b7100000000000000000000000000000000000000000000000000000000600052602260045260246000fd5b7f4e487b7100000000000000000000000000000000000000000000000000000000600052604160045260246000fd5b6000601f19601f8301169050919050565b6200044881620002f8565b81146200045457600080fd5b50565b610cd980620004676000396000f3fe608060405234801561001057600080fd5b50600436106100885760003560e01c80636fedeca11161005b5780636fedeca11461010357806394d2d7a71461011f578063a883fb901461013d578063bc52980e1461015b57610088565b8063223f84ef1461008d57806342cbb15c146100ab5780634dd57a1d146100c957806360a52ae3146100e5575b600080fd5b610095610179565b6040516100a29190610948565b60405180910390f35b6100b361020b565b6040516100c0919061090b565b60405180910390f35b6100e360048036038101906100de9190610674565b610213565b005b6100ed61023b565b6040516100fa919061098c565b60405180910390f35b61011d60048036038101906101189190610633565b610254565b005b610127610340565b604051610134919061090b565b60405180910390f35b61014561036a565b604051610152919061096a565b60405180910390f35b610163610420565b6040516101709190610926565b60405180910390f35b60606001805461018890610b8b565b80601f01602080910402602001604051908101604052809291908181526020018280546101b490610b8b565b80156102015780601f106101d657610100808354040283529160200191610201565b820191906000526020600020905b8154815290600101906020018083116101e457829003601f168201915b5050505050905090565b600030905090565b816003600001908051906020019061022c9291906104f9565b50806003600101819055505050565b6000600160008054905061024f9190610a83565b905090565b8060405160200161026591906108dd565b604051602081830303815290604052805190602001206000600160008054905061028f9190610ad9565b815481106102c6577f4e487b7100000000000000000000000000000000000000000000000000000000600052603260045260246000fd5b906000526020600020016040516020016102e091906108f4565b60405160208183030381529060405280519060200120141561030157600080fd5b60008190806001815401808255809150506001900390600052602060002001600090919091909150908051906020019061033c9291906104f9565b5050565b6000600260009054906101000a900473ffffffffffffffffffffffffffffffffffffffff16905090565b61037261057f565b600360405180604001604052908160008201805461038f90610b8b565b80601f01602080910402602001604051908101604052809291908181526020018280546103bb90610b8b565b80156104085780601f106103dd57610100808354040283529160200191610408565b820191906000526020600020905b8154815290600101906020018083116103eb57829003601f168201915b50505050508152602001600182015481525050905090565b60606000805480602002602001604051908101604052809291908181526020016000905b828210156104f057838290600052602060002001805461046390610b8b565b80601f016020809104026020016040519081016040528092919081815260200182805461048f90610b8b565b80156104dc5780601f106104b1576101008083540402835291602001916104dc565b820191906000526020600020905b8154815290600101906020018083116104bf57829003601f168201915b505050505081526020019060010190610444565b50505050905090565b82805461050590610b8b565b90600052602060002090601f016020900481019282610527576000855561056e565b82601f1061054057805160ff191683800117855561056e565b8280016001018555821561056e579182015b8281111561056d578251825591602001919060010190610552565b5b50905061057b9190610599565b5090565b604051806040016040528060608152602001600081525090565b5b808211156105b257600081600090555060010161059a565b5090565b60006105c96105c4846109cc565b6109a7565b9050828152602081018484840111156105e157600080fd5b6105ec848285610b49565b509392505050565b600082601f83011261060557600080fd5b81356106158482602086016105b6565b91505092915050565b60008135905061062d81610c8c565b92915050565b60006020828403121561064557600080fd5b600082013567ffffffffffffffff81111561065f57600080fd5b61066b848285016105f4565b91505092915050565b6000806040838503121561068757600080fd5b600083013567ffffffffffffffff8111156106a157600080fd5b6106ad858286016105f4565b92505060206106be8582860161061e565b9150509250929050565b60006106d48383610760565b905092915050565b6106e581610b0d565b82525050565b60006106f682610a22565b6107008185610a45565b935083602082028501610712856109fd565b8060005b8581101561074e578484038952815161072f85826106c8565b945061073a83610a38565b925060208a01995050600181019050610716565b50829750879550505050505092915050565b600061076b82610a2d565b6107758185610a56565b9350610785818560208601610b58565b61078e81610c7b565b840191505092915050565b60006107a482610a2d565b6107ae8185610a67565b93506107be818560208601610b58565b6107c781610c7b565b840191505092915050565b60006107dd82610a2d565b6107e78185610a78565b93506107f7818560208601610b58565b80840191505092915050565b6000815461081081610b8b565b61081a8186610a78565b94506001821660008114610835576001811461084657610879565b60ff19831686528186019350610879565b61084f85610a0d565b60005b8381101561087157815481890152600182019150602081019050610852565b838801955050505b50505092915050565b6000604083016000830151848203600086015261089f8282610760565b91505060208301516108b460208601826108bf565b508091505092915050565b6108c881610b3f565b82525050565b6108d781610b3f565b82525050565b60006108e982846107d2565b915081905092915050565b60006109008284610803565b915081905092915050565b600060208201905061092060008301846106dc565b92915050565b6000602082019050818103600083015261094081846106eb565b905092915050565b600060208201905081810360008301526109628184610799565b905092915050565b600060208201905081810360008301526109848184610882565b905092915050565b60006020820190506109a160008301846108ce565b92915050565b60006109b16109c2565b90506109bd8282610bbd565b919050565b6000604051905090565b600067ffffffffffffffff8211156109e7576109e6610c4c565b5b6109f082610c7b565b9050602081019050919050565b6000819050602082019050919050565b60008190508160005260206000209050919050565b600081519050919050565b600081519050919050565b6000602082019050919050565b600082825260208201905092915050565b600082825260208201905092915050565b600082825260208201905092915050565b600081905092915050565b6000610a8e82610b3f565b9150610a9983610b3f565b9250827fffffffffffffffffffffffffffffffffffffffffffffffffffffffffffffffff03821115610ace57610acd610bee565b5b828201905092915050565b6000610ae482610b3f565b9150610aef83610b3f565b925082821015610b0257610b01610bee565b5b828203905092915050565b6000610b1882610b1f565b9050919050565b600073ffffffffffffffffffffffffffffffffffffffff82169050919050565b6000819050919050565b82818337600083830152505050565b60005b83811015610b76578082015181840152602081019050610b5b565b83811115610b85576000848401525b50505050565b60006002820490506001821680610ba357607f821691505b60208210811415610bb757610bb6610c1d565b5b50919050565b610bc682610c7b565b810181811067ffffffffffffffff82111715610be557610be4610c4c565b5b80604052505050565b7f4e487b7100000000000000000000000000000000000000000000000000000000600052601160045260246000fd5b7f4e487b7100000000000000000000000000000000000000000000000000000000600052602260045260246000fd5b7f4e487b7100000000000000000000000000000000000000000000000000000000600052604160045260246000fd5b6000601f19601f8301169050919050565b610c9581610b3f565b8114610ca057600080fd5b5056fea2646970667358221220377f9e0d7bdfb727c0152e5c0627fc7c666119561627fa8e02ecd9d3e997f06f64736f6c63430008020033a264697066735822122079bd2e73f2ade28cf091559ed7528be949f67776f78e70c7a8a6e7b3a588f31764736f6c63430008020033",
  "linkReferences": {},
  "deployedLinkReferences": {}
}